:04000000CFEF01F04D
:08000800046ED8CF05F0E0CF33
:1000100006F00001E9CF0CF0EACF07F0E1CF08F0DD
:10002000E2CF09F0D9CF0AF0DACF0BF0F3CF12F01C
:10003000F4CF13F0FACF14F0F5CF15F0F6CF16F099
:10004000F7CF17F000C00EF001C00FF002C010F0A3
:1000500003C011F0F2AA30EF00F0F2B496EF00F016
:100060000EC000F00FC001F010C002F011C003F08C
:100070000CC0E9FF07C0EAFF078E08C0E1FF09C016
:10008000E2FF0AC0D9FF0BC0DAFF12C0F3FF13C0B2
:10009000F4FF14C0FAFF15C0F5FF16C0F6FF17C035
:1000A000F7FF045006C0E0FF05C0D8FF1000305035
:1000B000000A0BE0010A10E0030A15E0010A1AE049
:1000C000070A1FE0010A24E02AD094908B809492C2
:1000D0008B9294948B8429D094908B8094928B9261
:1000E00094948B9422D094908B8094928B8294944D
:1000F0008B941BD094908B9094928B8294948B943D
:1001000014D094908B9094928B8294948B840DD085
:1001100094908B9094928B9294948B8406D094902C
:100120008B9094928B9294948B941200F2941FC0B3
:10013000D7FF1EC0D6FF1AA606D01B2A1B500508E3
:1001400001E21B6A06D01B061B50050802E2050EE1
:100150001B6E1BC030F0ABDF1A88F29430EF00F05A
:10016000446F6E650A0D0000546D72302072656731
:1001700020616C74657261646F207061726120250A
:100180006C750A0D0000256C75202D2025750A0D53
:100190000000949C8B9C080E016E00D00000018E24
:1001A0000ED0019E2F32D8B08B8CD8A08B9C018CA6
:1001B00006D0019C012EF6D700D000008B8C7C0E5F
:1001C000E96EE92EFED7000001BEEBD701BCF1D7E6
:1001D00012000900F5520CE0F6CF24F0F7CF25F01D
:1001E000F5CF2FF0D6DF24C0F6FF25C0F7FFF1D7FB
:1001F000FFEF01F024502602F3CF01F0F4CF00F01E
:100200002702F350002625502602F3500020026EEC
:1002100018EF02F00900F6CF27F0F7CF28F0F5CF5E
:100220002FF0B7DF27C0F6FF28C0F7FF262EF2D742
:100230001200EACF2EF0E9CF2DF02738F009296E11
:100240002926E20F2A6E320F2C6E27500F0B2A261A
:100250002A262C26E90F2B6E2B262B2626380F0B51
:100260002B262C262B362C362C1E2C3626500F0BEC
:100270002C262936070E286E0A0E2B062C26FDE3A7
:100280002A062B26FDE329062A26FDE32806292631
:10029000FDE3EA6A280EE96E070E2D142D9CE9266F
:1002A0002C0EE95CD8B42D8CEF50006E08E12DBC0B
:1002B00006D02DB813D02DB602D0200E03D02D8637
:1002C0002D98300E0026EACF27F0E9CF26F000C0A7
:1002D0002FF05FDF27C0EAFF26C0E9FFEE502DAC0C
:1002E000DFD71200EA6A240EE96EEF500EE0040E2A
:1002F000016E006A002EFED7012EFBD7DC0E006EC9
:10030000002EFED70000EF2EF2D747EF02F0295063
:10031000016A285C03E228C000F00CD0006A080ED5
:100320002A6E283600362950005CD8B0006E01369F
:100330002A2EF7D71200015026C028F0640E296E2D
:10034000E6DF00C026F00150300E07E127A20CD0F6
:1003500027B60AD027B8200E03D0279627982780E3
:10036000012601C02FF015DF26C028F00A0E296EE5
:10037000CEDF00C026F00150300E06E127B608D0CF
:1003800027A006D027B8200E012601C02FF001DFDC
:10039000300E262626C02FF0FCDE79EF02F0F86A38
:1003A000D09E078EEA6AE96A949C8B8C1A80C18081
:1003B000C182C184C196C19CC28CC28EC18EC280D2
:1003C000C190C182C184C186000E016EC250C70BAC
:1003D0000110C26E820ED56E1FC0D7FF1EC0D6FFA1
:1003E000C00EF212196AF2BE198EF29E30685FDEFC
:1003F00019BEF28E600EF66E010EF76EEAD6C2845A
:10040000C2B4FED7C3CF20F0C4CF21F02250205C6D
:1004100003E12350215C24E021C023F020C022F01E
:10042000256A3F0E246E21C027F020C026F0E2D6B8
:1004300002C01FF001C01EF0680EF66E010EF76ECE
:10044000170E266EE7DE100EE96E21C027F020C0E1
:1004500026F0EFDE0A0E2F6E9CDE0D0E2F6E99DE5B
:1004600093801A9281A01A8293821A9481A21A848C
:10047000000E1AB2010E256E000E1AB4010E2518D8
:100480000CE01AA009D01A90640E246E2BD7F294B7
:10049000F28A1A961AB21A860DD01AB00BD01A80A8
:1004A000F29A1B6A196AF2BE198EF29E3068FFDD5D
:1004B00019BEF28E1AA823D01A981DC003F01C5042
:1004C0001C2AD8B41D2A246E03C025F0100EE96E34
:1004D00003C027F024C026F0ACDE890EF66E010EB4
:1004E000F76E030E266E96DE1BC026F01B0E276EDF
:1004F00022D70A0E2F6E4DDE0D0E2F6E4ADE7FD7ED
:06050000000E016E030075
:020000040030CA
:0E00000000220E0E000181000FC00FE00F4025
:00000001FF
;PIC18F252
;CRC=2D4D  CREATED="24-set-14 14:23"
