:04000000B6EF01F066
:08000800046ED8CF05F0E0CF33
:1000100006F00001E9CF0CF0EACF07F0E1CF08F0DD
:10002000E2CF09F0D9CF0AF0DACF0BF0F3CF12F01C
:10003000F4CF13F0FACF14F0F5CF15F0F6CF16F099
:10004000F7CF17F000C00EF001C00FF002C010F0A3
:1000500003C011F0F2AA30EF00F0F2B496EF00F016
:100060000EC000F00FC001F010C002F011C003F08C
:100070000CC0E9FF07C0EAFF078E08C0E1FF09C016
:10008000E2FF0AC0D9FF0BC0DAFF12C0F3FF13C0B2
:10009000F4FF14C0FAFF15C0F5FF16C0F6FF17C035
:1000A000F7FF045006C0E0FF05C0D8FF10002C5039
:1000B000000A0BE0010A10E0030A15E0010A1AE049
:1000C000070A1FE0010A24E02AD094908B809492C2
:1000D0008B9294948B8429D094908B8094928B9261
:1000E00094948B9422D094908B8094928B8294944D
:1000F0008B941BD094908B9094928B8294948B943D
:1001000014D094908B9094928B8294948B840DD085
:1001100094908B9094928B9294948B8406D094902C
:100120008B9094928B9294948B941200F294C80EBC
:100130001E26000E1F221FC0D7FF1EC0D6FF1AA604
:1001400006D01B2A1B50050801E21B6A06D01B06BD
:100150001B50050802E2050E1B6E1BC02CF0A7DF2A
:100160001A88F29430EF00F0446F6E650A0D0000BB
:10017000256C75202D2025750A0D0000949C8B9C04
:10018000080E016E00D00000018E0ED0019E2B32B1
:10019000D8B08B8CD8A08B9C018C06D0019C012EF2
:1001A000F6D700D000008B8C7C0EE96EE92EFED7CE
:1001B000000001BEEBD701BCF1D712000900F552D7
:1001C0000CE0F6CF20F0F7CF21F0F5CF2BF0D6DF03
:1001D00020C0F6FF21C0F7FFF1D7D7EF01F0EA6AA0
:1001E000200EE96EEF500EE0040E016E006A002E44
:1001F000FED7012EFBD7DC0E006E002EFED70000CE
:10020000EF2EF2D7EEEF01F0EACF2AF0E9CF29F096
:100210002338F009256E2526E20F266E320F286E50
:1002200023500F0B262626262826E90F276E272681
:10023000272622380F0B2726282627362836281E61
:10024000283622500F0B28262536070E246E0A0E5C
:1002500027062826FDE326062726FDE32506262673
:10026000FDE324062526FDE3EA6A240EE96E070E67
:100270002914299CE926280EE95CD8B4298CEF5072
:10028000006E08E129BC06D029B813D029B602D0E7
:10029000200E03D029862998300E0026EACF23F0BD
:1002A000E9CF22F000C02BF069DF23C0EAFF22C0B3
:1002B000E9FFEE5029ACDFD716EF02F00900F6CFC8
:1002C00023F0F7CF24F0F5CF2BF058DF23C0F6FF53
:1002D00024C0F7FF222EF2D71DEF02F02550016A4D
:1002E000245C03E224C000F00CD0006A080E266EE5
:1002F000243600362550005CD8B0006E0136262E1C
:10030000F7D71200015022C024F0640E256EE6DFFC
:1003100000C022F00150300E07E123A20CD023B61A
:100320000AD023B8200E03D02396239823800126D9
:1003300001C02BF023DF22C024F00A0E256ECEDF91
:1003400000C022F00150300E06E123B608D023A0F1
:1003500006D023B8200E012601C02BF00FDF300E8F
:10036000222622C02BF00ADF22EF02F0F86AD09E8C
:10037000078EEA6AE96A949C8B8C1A80C180C182DC
:10038000C184C196880ED56E1FC0D7FF1EC0D6FF90
:10039000C00EF212196AF2BE198EF29E2C6887DE28
:1003A00019BEF28E680EF66E010EF76E07D79380B7
:1003B0001A9281A01A8293821A9481A21A84000E42
:1003C0001AB2010E216E000E1AB4010E21180CE0B3
:1003D0001AA009D01A90640E206E01D7F294F28A06
:1003E0001A961AB21A860FD01AB00DD01A80F29A45
:1003F0001B6A196AF2BE198EF29E2C6858DE19BE6D
:10040000F28E1F6A1E6A1AA823D01A981DC003F024
:100410001C501C2AD8B41D2A206E03C021F0100ED7
:10042000E96E03C023F020C022F0EED6730EF66E04
:10043000010EF76E030E226E41D71BC022F01B0E79
:10044000236E60D70A0E2B6E99DE0D0E2B6E96DE94
:08045000AED7000E016E03009F
:020000040030CA
:0E00000000220E0E000181000FC00FE00F4025
:00000001FF
;PIC18F252
;CRC=A6D9  CREATED="23-set-14 17:10"
