:04000000AAEF00F073
:08000800046ED8CF05F0E0CF33
:1000100006F00001E9CF0CF0EACF07F0E1CF08F0DD
:10002000E2CF09F0D9CF0AF0DACF0BF0F3CF12F01C
:10003000F4CF13F0FACF14F0F5CF15F0F6CF16F099
:10004000F7CF17F000C00EF001C00FF002C010F0A3
:1000500003C011F09DA430EF00F09EB45DEF00F0FE
:10006000A0A036EF00F0A1B079EF00F00EC000F0D4
:100070000FC001F010C002F011C003F00CC0E9FF86
:1000800007C0EAFF078E08C0E1FF09C0E2FF0AC00F
:10009000D9FF0BC0DAFF12C0F3FF13C0F4FF14C086
:1000A000FAFF15C0F5FF16C0F6FF17C0F7FF0450A2
:1000B00006C0E0FF05C0D8FF10009E94197019A07B
:1000C0000BD094948B84090EBD6ECF6ACE6AEA0E73
:1000D000BF6E600EBE6E0AD094948B94080EBD6EF7
:1000E000CF6ACE6AEA0EBF6E600EBE6E9E9436EF89
:1000F00000F0A190197219A20BD094928B82090E74
:10010000BA6EB36AB26AEA0EBC6E600EBB6E0AD0FB
:1001100094928B92080EBA6EB36AB26AEA0EBC6E03
:10012000600EBB6EA19036EF00F0EA6A1A0EE96E1F
:10013000EF500EE0040E016E006A002EFED7012E75
:10014000FBD7DC0E006E002EFED70000EF2EF2D79C
:10015000E8EF00F0F86AD09E078EEA6AE96A949C9C
:100160008B8C1984C180C182C184C196CF6ACE6A4A
:10017000850ECD6ECF6ACE6A8D0EB16EB36AB26A4D
:1001800094948B84090EBD6EEA0EBF6E600EBE6E37
:1001900094928B82090EBA6EEA0EBC6E600EBB6E34
:1001A0009E94A190C00EF2129380199681A0198698
:1001B0009382199881A21988000E19B6010E1B6E40
:1001C000000E19B8010E1B180EE0640E1A6EADD7A2
:1001D00019A408D0199419A603D09E949D8402D026
:1001E000A190A0800ED019B40CD0198494948B8463
:1001F000090EBD6E94928B82BA6E9D94A090199256
:0A0200001990D2D7000E016E030022
:020000040030CA
:0E00000000220E0E000181000FC00FE00F4025
:00000001FF
;PIC18F252
;CRC=B289  CREATED="22-set-14 16:30"
