:040000008EEF00F08F
:08000800046ED8CF05F0E0CF33
:1000100006F00001E9CF0CF0EACF07F0E1CF08F0DD
:10002000E2CF09F0D9CF0AF0DACF0BF0F3CF12F01C
:10003000F4CF13F0FACF14F0F5CF15F0F6CF16F099
:10004000F7CF17F000C00EF001C00FF002C010F0A3
:1000500003C011F0F2AA30EF00F0F2B457EF00F055
:100060000EC000F00FC001F010C002F011C003F08C
:100070000CC0E9FF07C0EAFF078E08C0E1FF09C016
:10008000E2FF0AC0D9FF0BC0DAFF12C0F3FF13C0B2
:10009000F4FF14C0FAFF15C0F5FF16C0F6FF17C035
:1000A000F7FF045006C0E0FF05C0D8FF1000F2942F
:1000B000D70ED76E4E0ED66E19A606D01A2A1A5033
:1000C000050801E21A6A06D01A061A50050802E26B
:1000D000050E1A6E036A1A501B0FE96E000E0320FC
:1000E000EA6EEFCF23F0946A23C08BFFF29430EFD7
:1000F00000F0EA6A210EE96EEF500EE0040E016E88
:10010000006A002EFED7012EFBD7DC0E006E002EFB
:10011000FED70000EF2EF2D7C5EF00F0F86AD09EB0
:10012000078EEA6AE96A949C8B8C1980C180C1822F
:10013000C184C196050E1B6E040E1C6E060E1D6E4C
:10014000020E1E6E030E1F6E010E206E880ED56EFF
:10015000D70ED76E4E0ED66EC00EF2129380199245
:1001600081A019829382199481A21984000E19B278
:10017000010E226E000E19B4010E22180CE019A017
:1001800009D01990640E216EB4D7F294F28A1996B0
:1001900019B2198605D019B003D01980F29A1A6ADB
:0801A000DDD7000E016E030023
:020000040030CA
:0E00000000220E0E000181000FC00FE00F4025
:00000001FF
;PIC18F252
;CRC=154B  CREATED="23-set-14 11:13"
