:1000000038EF00F068656C6C6F00949C8B9C080E58
:10001000016E00D00000018E0ED0019E0732D8B0D4
:100020008B8CD8A08B9C018C06D0019C012EF6D71E
:1000300000D000008B8C840EE96EE92EFED700D034
:10004000000001BEEAD701BCF0D731EF00F0090093
:10005000F5520CE0F6CF05F0F7CF06F0F5CF07F03C
:10006000D4D705C0F6FF06C0F7FFF1D747EF00F081
:10007000F86AD09EEA6AE96A949C8B8CC180C1823E
:10008000C184C196040EF66E000EF76EE0D7000E26
:04009000016E0300FA
:020000040030CA
:0E00000000220E0E000181000FC00FE00F4025
:00000001FF
;PIC18F252
;CRC=E0D8  CREATED="22-set-14 11:42"
