:04000000EDEF00F030
:08000800046ED8CF05F0E0CF33
:1000100006F00001E9CF0CF0EACF07F0E1CF08F0DD
:10002000E2CF09F0D9CF0AF0DACF0BF0F3CF12F01C
:10003000F4CF13F0FACF14F0F5CF15F0F6CF16F099
:10004000F7CF17F000C00EF001C00FF002C010F0A3
:1000500003C011F0F2AA30EF00F0F2B496EF00F016
:100060000EC000F00FC001F010C002F011C003F08C
:100070000CC0E9FF07C0EAFF078E08C0E1FF09C016
:10008000E2FF0AC0D9FF0BC0DAFF12C0F3FF13C0B2
:10009000F4FF14C0FAFF15C0F5FF16C0F6FF17C035
:1000A000F7FF045006C0E0FF05C0D8FF10002D5038
:1000B000000A0BE0010A10E0030A15E0010A1AE049
:1000C000070A1FE0010A24E02AD094908B809492C2
:1000D0008B9294968B8629D094908B8094928B925D
:1000E00094968B9622D094908B8094928B82949647
:1000F0008B961BD094908B9094928B8294968B9637
:1001000014D094908B9094928B8294968B860DD081
:1001100094908B9094928B9294968B8606D0949028
:100120008B9094928B9294968B961200F2941FC0AF
:10013000D7FF1EC0D6FF1AA606D01B2A1B500508E3
:1001400001E21B6A06D01B061B50050802E2050EE1
:100150001B6E1BC02DF0ABDFF29430EF00F02834A3
:10016000006E00360036F80E0016C250C70B0010A5
:10017000C26E310E006E002EFED700D0C284C2B413
:10018000FED7C4CF03F0C3CF01F0C4CF02F01200FA
:1001900028502A02F3CF01F0F4CF00F02B02F350E5
:1001A000002629502A02F3500020026E34EF01F09D
:1001B000EA6A280EE96EEF500EE0040E016E006A46
:1001C000002EFED7012EFBD7DC0E006E002EFED7D0
:1001D0000000EF2EF2D773EF01F0F86AD09E078E81
:1001E000EA6AE96A1A80C180C182C184C196C19C51
:1001F000C28CC28EC18EC280C190C192C184C19690
:10020000810ED56E1FC0D7FF1EC0D6FF780E040921
:10021000CA6EFF0ECB6EF00EBD16800EBE6EBD50C8
:10022000CF0BBD6EC00EF212196AF2BE198EF29E8D
:100230002D683DDF19BEF28E286A91DF02C021F0E1
:1002400001C020F02250205C03E12350215C10E02B
:1002500021C023F020C022F0296A3F0E286E21C061
:100260002BF020C02AF094D702C01FF001C01EF06E
:10027000010E286E74DF02C021F001C020F024506E
:10028000205C03E12550215C17E021C025F020C04F
:1002900024F021C002F020C001F00232013202320B
:1002A0000132023201C0BEFF02320230300B006E5A
:1002B000BD50CF0B0010BD6E93801A9281A01A82A0
:1002C00093821A9481A21A84000E1AB2010E296E2A
:1002D000000E1AB4010E291810E01AA00DD01A90C1
:1002E000640E286E65D7F294F28A1A961AB21A86AC
:1002F00094948B940C0EBD6E0FD01AB00DD01A8052
:10030000F29A1B6A196AF2BE198EF29E2D68CFDE30
:1003100019BEF28EF00EBD168FD7000E016E0300CF
:020000040030CA
:0E00000000220E0E000181000FC00FE00F4025
:00000001FF
;PIC18F252
;CRC=0E83  CREATED="25-set-14 12:00"
