:04000000C4EF00F059
:08000800046ED8CF05F0E0CF33
:1000100006F00001E9CF0CF0EACF07F0E1CF08F0DD
:10002000E2CF09F0D9CF0AF0DACF0BF0F3CF12F01C
:10003000F4CF13F0FACF14F0F5CF15F0F6CF16F099
:10004000F7CF17F000C00EF001C00FF002C010F0A3
:1000500003C011F0F2AA30EF00F0F2B496EF00F016
:100060000EC000F00FC001F010C002F011C003F08C
:100070000CC0E9FF07C0EAFF078E08C0E1FF09C016
:10008000E2FF0AC0D9FF0BC0DAFF12C0F3FF13C0B2
:10009000F4FF14C0FAFF15C0F5FF16C0F6FF17C035
:1000A000F7FF045006C0E0FF05C0D8FF100026503F
:1000B000000A0BE0010A10E0030A15E0010A1AE049
:1000C000070A1FE0010A24E02AD094908B809492C2
:1000D0008B9294968B8629D094908B8094928B925D
:1000E00094968B9622D094908B8094928B82949647
:1000F0008B961BD094908B9094928B8294968B9637
:1001000014D094908B9094928B8294968B860DD081
:1001100094908B9094928B9294968B8606D0949028
:100120008B9094928B9294968B961200F2941FC0AF
:10013000D7FF1EC0D6FF1AA606D01B2A1B500508E3
:1001400001E21B6A06D01B061B50050802E2050EE1
:100150001B6E1BC026F0ABDFF29430EF00F0EA6AB2
:10016000240EE96EEF500EE0040E016E006A002EC0
:10017000FED7012EFBD7DC0E006E002EFED700004E
:10018000EF2EF2D73AEF01F0F86AD09E078EEA6AB6
:10019000E96A1A80C180C182C184C196C19CC28CA7
:1001A000C28EC18EC280C190C182C184C186000E40
:1001B000016EC250C70B0110C26E880ED56E1FC0F3
:1001C000D7FF1EC0D6FF000E0409CA6EFF0ECB6E0D
:1001D000F00EBD16800EBE6EBD50CF0BBD6EC00EB4
:1001E000F212196AF2BE198EF29E266860DF19BEFD
:1001F000F28E0B0E006E002EFED700D00000C284DF
:10020000C2B4FED7C3CF20F0C4CF21F02250205C6F
:1002100003E12350215C17E021C023F020C022F02D
:1002200021C002F020C001F002320132023201325C
:10023000023201C0BEFF02320230300B006EBD50F0
:10024000CF0B0010BD6E93801A9281A01A82938208
:100250001A9481A21A84000E1AB2010E256E000EA5
:100260001AB4010E251810E01AA00DD01A90640ED1
:10027000246E75D7F294F28A1A961AB21A8694945A
:100280008B940C0EBD6E0FD01AB00DD01A80F29A5E
:100290001B6A196AF2BE198EF29E266808DF19BE23
:0E02A000F28EF00EBD16A5D7000E016E030003
:020000040030CA
:0E00000000220E0E000181000FC00FE00F4025
:00000001FF
;PIC18F252
;CRC=4B38  CREATED="24-set-14 16:34"
